Microchip MPLAB XC8 Compiler V2.36

Linker command line:

-W-3 --edf=C:\Program Files\Microchip\xc8\v2.36\pic\dat\en_msgs.txt -cn \
  -h+dist/default/production\cw05.X.production.sym \
  --cmf=dist/default/production\cw05.X.production.cmf -z -Q18F4620 \
  -oC:\Users\local\AppData\Local\Temp\xcAs62c.4 --defsym=__MPLAB_BUILD=1 \
  -Mdist/default/production/cw05.X.production.map \
  --md=C:\Users\local\AppData\Local\Temp\xcAs62c.dat -E1 -ver=XC8 Compiler \
  --acfsm=1493 -ACODE=00h-0FFFFh -ACONST=00h-0FFFFh \
  -ASMALLCONST=01000h-010FFhx240 -AMEDIUMCONST=01000h-0FFFFh \
  -ACOMRAM=01h-07Fh -AABS1=00h-0F7Fh -ABIGRAM=01h-0F7Fh \
  -ARAM=080h-0FFh,0100h-01FFhx14,0F00h-0F7Fh -ABANK0=080h-0FFh \
  -ABANK1=0100h-01FFh -ABANK2=0200h-02FFh -ABANK3=0300h-03FFh \
  -ABANK4=0400h-04FFh -ABANK5=0500h-05FFh -ABANK6=0600h-06FFh \
  -ABANK7=0700h-07FFh -ABANK8=0800h-08FFh -ABANK9=0900h-09FFh \
  -ABANK10=0A00h-0AFFh -ABANK11=0B00h-0BFFh -ABANK12=0C00h-0CFFh \
  -ABANK13=0D00h-0DFFh -ABANK14=0E00h-0EFFh -ABANK15=0F00h-0F7Fh \
  -ASFR=0F80h-0FFFh -ABIGSFR=0F80h-0FFFh -ACONFIG=0300000h-030000Dh \
  -AIDLOC=0200000h-0200007h -AEEDATA=0F00000h-0F003FFh -peeprom_data=EEDATA \
  -preset_vec=00h,intcode,intcodelo,powerup,init -pramtop=01000h \
  -psmallconst=SMALLCONST -pmediumconst=MEDIUMCONST -pconst=CONST \
  -AFARRAM=00h-00h \
  -prdata=COMRAM,nvrram=COMRAM,nvbit=COMRAM,rbss=COMRAM,rbit=COMRAM \
  -pfarbss=FARRAM,fardata=FARRAM,nvFARRAM=FARRAM \
  -pintsave_regs=BIGRAM,bigbss=BIGRAM,bigdata=BIGRAM -pbss=RAM \
  -pidata=CODE,irdata=CODE,ibigdata=CODE,ifardata=CODE -prparam=COMRAM \
  C:\Users\local\AppData\Local\Temp\xcAs62c.o \
  dist/default/production\cw05.X.production.o 

Object code version is 3.11

Machine type is 18F4620



                Name                               Link     Load   Length Selector   Space Scale
C:\Users\local\AppData\Local\Temp\xcAs62c.o
                idloc                            200000   200000        8        0       5
                config                           300000   300000        E        0       4
                init                                  0        0        4        0       0
dist/default/production\cw05.X.production.o
                idloc                            200000   200000        8        0       5
                config                           300000   300000        E        0       4
                text14                             FD24     FD24       B0     7E92       0
                text13                             FC7C     FC7C       A8     7E3E       0
                text12                             FB6E     FB6E       7E     7DB7       0
                text11                             FEE6     FEE6      11A     7F73       0
                text10                             F986     F986       48     7CC3       0
                text9                              F8CE     F8CE        8     7C67       0
                text8                              F8D6     F8D6       12     7C6B       0
                text7                              F9CE     F9CE       5C     7CE7       0
                text6                              F8E8     F8E8       12     7C74       0
                text5                              F94C     F94C       3A     7CA6       0
                text4                              FAFA     FAFA       74     7D7D       0
                text3                              FBEC     FBEC       90     7DF6       0
                text2                              FA2A     FA2A       66     7D15       0
                text1                              FA90     FA90       6A     7D48       0
                text0                              FDD4     FDD4      112     7EEA       0
                cstackCOMRAM                         25       25       16        1       1
                dataCOMRAM                            1        1       24        1       1
                bssCOMRAM                            3B       3B        2        1       1
                cinit                              F91E     F91E       2E     7C8F       0
                idataCOMRAM                        F8FA     F8FA       24     F8FA       0

TOTAL           Name                               Link     Load   Length     Space
        CLASS   CODE           
                init                                  0        0        4         0
                text14                             FD24     FD24       B0         0
                text13                             FC7C     FC7C       A8         0
                text12                             FB6E     FB6E       7E         0
                text11                             FEE6     FEE6      11A         0
                text10                             F986     F986       48         0
                text9                              F8CE     F8CE        8         0
                text8                              F8D6     F8D6       12         0
                text7                              F9CE     F9CE       5C         0
                text6                              F8E8     F8E8       12         0
                text5                              F94C     F94C       3A         0
                text4                              FAFA     FAFA       74         0
                text3                              FBEC     FBEC       90         0
                text2                              FA2A     FA2A       66         0
                text1                              FA90     FA90       6A         0
                text0                              FDD4     FDD4      112         0
                cinit                              F91E     F91E       2E         0
                idataCOMRAM                        F8FA     F8FA       24         0

        CLASS   CONST          

        CLASS   SMALLCONST     

        CLASS   MEDIUMCONST    

        CLASS   COMRAM         
                cstackCOMRAM                         25       25       16         1
                dataCOMRAM                            1        1       24         1
                bssCOMRAM                            3B       3B        2         1

        CLASS   ABS1           

        CLASS   BIGRAM         

        CLASS   RAM            

        CLASS   BANK0          

        CLASS   BANK1          

        CLASS   BANK2          

        CLASS   BANK3          

        CLASS   BANK4          

        CLASS   BANK5          

        CLASS   BANK6          

        CLASS   BANK7          

        CLASS   BANK8          

        CLASS   BANK9          

        CLASS   BANK10         

        CLASS   BANK11         

        CLASS   BANK12         

        CLASS   BANK13         

        CLASS   BANK14         

        CLASS   BANK15         

        CLASS   SFR            

        CLASS   BIGSFR         

        CLASS   CONFIG         
                config                           300000   300000        E         4

        CLASS   IDLOC          
                idloc                            200000   200000        8         5

        CLASS   EEDATA         

        CLASS   FARRAM         

        CLASS   HEAP           

        CLASS   STACK          



SEGMENTS        Name                           Load    Length   Top    Selector   Space  Class

                reset_vec                      000000  000004  000004         0       0  CODE    
                dataCOMRAM                     000001  00003C  00003D         1       1  COMRAM  
                text9                          00F8CE  000008  00F8D6      7C67       0  CODE    
                text8                          00F8D6  000012  00F8E8      7C6B       0  CODE    
                text6                          00F8E8  000012  00F8FA      7C74       0  CODE    
                idataCOMRAM                    00F8FA  000024  00F91E      F8FA       0  CODE    
                cinit                          00F91E  00002E  00F94C      7C8F       0  CODE    
                text5                          00F94C  00003A  00F986      7CA6       0  CODE    
                text10                         00F986  000048  00F9CE      7CC3       0  CODE    
                text7                          00F9CE  00005C  00FA2A      7CE7       0  CODE    
                text2                          00FA2A  000066  00FA90      7D15       0  CODE    
                text1                          00FA90  00006A  00FAFA      7D48       0  CODE    
                text4                          00FAFA  000074  00FB6E      7D7D       0  CODE    
                text12                         00FB6E  00007E  00FBEC      7DB7       0  CODE    
                text3                          00FBEC  000090  00FC7C      7DF6       0  CODE    
                text13                         00FC7C  0000A8  00FD24      7E3E       0  CODE    
                text14                         00FD24  0000B0  00FDD4      7E92       0  CODE    
                text0                          00FDD4  000112  00FEE6      7EEA       0  CODE    
                text11                         00FEE6  00011A  010000      7F73       0  CODE    


UNUSED ADDRESS RANGES

        Name                Unused          Largest block    Delta
        BANK0            000080-0000FF               80
        BANK1            000100-0001FF              100
        BANK10           000A00-000AFF              100
        BANK11           000B00-000BFF              100
        BANK12           000C00-000CFF              100
        BANK13           000D00-000DFF              100
        BANK14           000E00-000EFF              100
        BANK15           000F00-000F7F               80
        BANK2            000200-0002FF              100
        BANK3            000300-0003FF              100
        BANK4            000400-0004FF              100
        BANK5            000500-0005FF              100
        BANK6            000600-0006FF              100
        BANK7            000700-0007FF              100
        BANK8            000800-0008FF              100
        BANK9            000900-0009FF              100
        BIGRAM           00003D-000F7F              F43
        BIGSFR           000F80-000FFF               80
        CODE             000004-00F8CD             F8CA
        COMRAM           00003D-00007F               43
        CONST            000004-00F8CD             F8CA
        EEDATA           F00000-F003FF              400
        MEDIUMCONST      001000-00F8CD             E8CE
        RAM              000080-000F7F              100
        SFR              000F80-000FFF               80
        SMALLCONST       001000-00F8CD              100

                                  Symbol Table

?___awmod                cstackCOMRAM 000025
?___lwdiv                cstackCOMRAM 00002C
?_adc                    cstackCOMRAM 000025
_ADCON0                  (abs)        000FC2
_ADCON0bits              (abs)        000FC2
_ADCON1                  (abs)        000FC1
_ADCON2                  (abs)        000FC0
_ADRESH                  (abs)        000FC4
_ADRESL                  (abs)        000FC3
_PORTBbits               (abs)        000F81
_PORTD                   (abs)        000F83
_PORTEbits               (abs)        000F84
_TRISA                   (abs)        000F92
_TRISB                   (abs)        000F93
_TRISC                   (abs)        000F94
_TRISD                   (abs)        000F95
_TRISE                   (abs)        000F96
__HRAM                   (abs)        000000
__Habs1                  abs1         000000
__Hbank0                 bank0        000000
__Hbank1                 bank1        000000
__Hbank10                bank10       000000
__Hbank11                bank11       000000
__Hbank12                bank12       000000
__Hbank13                bank13       000000
__Hbank14                bank14       000000
__Hbank15                bank15       000000
__Hbank2                 bank2        000000
__Hbank3                 bank3        000000
__Hbank4                 bank4        000000
__Hbank5                 bank5        000000
__Hbank6                 bank6        000000
__Hbank7                 bank7        000000
__Hbank8                 bank8        000000
__Hbank9                 bank9        000000
__Hbigbss                bigbss       000000
__Hbigdata               bigdata      000000
__Hbigram                bigram       000000
__Hbigsfr                bigsfr       000000
__Hbss                   bss          000000
__HbssCOMRAM             bssCOMRAM    000000
__Hcinit                 cinit        000000
__Hclrtext               clrtext      000000
__Hcomram                comram       000000
__Hconfig                config       30000E
__Hconst                 const        000000
__HcstackCOMRAM          cstackCOMRAM 000000
__Hdata                  data         000000
__HdataCOMRAM            dataCOMRAM   000000
__Heeprom_data           eeprom_data  000000
__Hfarbss                farbss       000000
__Hfardata               fardata      000000
__Hheap                  heap         000000
__Hibigdata              ibigdata     000000
__Hidata                 idata        000000
__HidataCOMRAM           idataCOMRAM  000000
__Hidloc                 idloc        200008
__Hifardata              ifardata     000000
__Hinit                  init         000004
__Hintcode               intcode      000000
__Hintcode_body          intcode_body 000000
__Hintcodelo             intcodelo    000000
__Hintentry              intentry     000000
__Hintret                intret       000000
__Hintsave_regs          intsave_regs 000000
__Hirdata                irdata       000000
__Hmediumconst           mediumconst  000000
__HnvFARRAM              nvFARRAM     000000
__Hnvbit                 nvbit        000000
__Hnvrram                nvrram       000000
__Hparam                 rparam       000000
__Hpowerup               powerup      000000
__Hram                   ram          000000
__Hramtop                ramtop       001000
__Hrbit                  rbit         000000
__Hrbss                  rbss         000000
__Hrdata                 rdata        000000
__Hreset_vec             reset_vec    000000
__Hrparam                rparam       000000
__Hsfr                   sfr          000000
__Hsmallconst            smallconst   000000
__Hspace_0               (abs)        010000
__Hspace_1               (abs)        00003D
__Hspace_2               (abs)        000000
__Hspace_4               (abs)        60000E
__Hstack                 stack        000000
__Hstruct                struct       000000
__Htemp                  temp         000000
__Htext                  text         000000
__Htext0                 text0        000000
__Htext1                 text1        000000
__Htext10                text10       000000
__Htext11                text11       000000
__Htext12                text12       000000
__Htext13                text13       000000
__Htext14                text14       000000
__Htext2                 text2        000000
__Htext3                 text3        000000
__Htext4                 text4        000000
__Htext5                 text5        000000
__Htext6                 text6        000000
__Htext7                 text7        000000
__Htext8                 text8        000000
__Htext9                 text9        000000
__LRAM                   (abs)        000001
__Labs1                  abs1         000000
__Lbank0                 bank0        000000
__Lbank1                 bank1        000000
__Lbank10                bank10       000000
__Lbank11                bank11       000000
__Lbank12                bank12       000000
__Lbank13                bank13       000000
__Lbank14                bank14       000000
__Lbank15                bank15       000000
__Lbank2                 bank2        000000
__Lbank3                 bank3        000000
__Lbank4                 bank4        000000
__Lbank5                 bank5        000000
__Lbank6                 bank6        000000
__Lbank7                 bank7        000000
__Lbank8                 bank8        000000
__Lbank9                 bank9        000000
__Lbigbss                bigbss       000000
__Lbigdata               bigdata      000000
__Lbigram                bigram       000000
__Lbigsfr                bigsfr       000000
__Lbss                   bss          000000
__LbssCOMRAM             bssCOMRAM    000000
__Lcinit                 cinit        000000
__Lclrtext               clrtext      000000
__Lcomram                comram       000000
__Lconfig                config       000000
__Lconst                 const        000000
__LcstackCOMRAM          cstackCOMRAM 000000
__Ldata                  data         000000
__LdataCOMRAM            dataCOMRAM   000000
__Leeprom_data           eeprom_data  000000
__Lfarbss                farbss       000000
__Lfardata               fardata      000000
__Lheap                  heap         000000
__Libigdata              ibigdata     000000
__Lidata                 idata        000000
__LidataCOMRAM           idataCOMRAM  000000
__Lidloc                 idloc        000000
__Lifardata              ifardata     000000
__Linit                  init         000000
__Lintcode               intcode      000000
__Lintcode_body          intcode_body 000000
__Lintcodelo             intcodelo    000000
__Lintentry              intentry     000000
__Lintret                intret       000000
__Lintsave_regs          intsave_regs 000000
__Lirdata                irdata       000000
__Lmediumconst           mediumconst  000000
__LnvFARRAM              nvFARRAM     000000
__Lnvbit                 nvbit        000000
__Lnvrram                nvrram       000000
__Lparam                 rparam       000000
__Lpowerup               powerup      000000
__Lram                   ram          000000
__Lramtop                ramtop       001000
__Lrbit                  rbit         000000
__Lrbss                  rbss         000000
__Lrdata                 rdata        000000
__Lreset_vec             reset_vec    000000
__Lrparam                rparam       000000
__Lsfr                   sfr          000000
__Lsmallconst            smallconst   000000
__Lspace_0               (abs)        000000
__Lspace_1               (abs)        000000
__Lspace_2               (abs)        000000
__Lspace_4               (abs)        000000
__Lstack                 stack        000000
__Lstruct                struct       000000
__Ltemp                  temp         000000
__Ltext                  text         000000
__Ltext0                 text0        000000
__Ltext1                 text1        000000
__Ltext10                text10       000000
__Ltext11                text11       000000
__Ltext12                text12       000000
__Ltext13                text13       000000
__Ltext14                text14       000000
__Ltext2                 text2        000000
__Ltext3                 text3        000000
__Ltext4                 text4        000000
__Ltext5                 text5        000000
__Ltext6                 text6        000000
__Ltext7                 text7        000000
__Ltext8                 text8        000000
__Ltext9                 text9        000000
__S0                     (abs)        010000
__S1                     (abs)        00003D
__S4                     (abs)        000000
__S5                     (abs)        000000
___awmod                 text14       00FD24
___awmod@counter         cstackCOMRAM 000029
___awmod@dividend        cstackCOMRAM 000025
___awmod@divisor         cstackCOMRAM 000027
___awmod@sign            cstackCOMRAM 00002A
___heap_hi               (abs)        000000
___heap_lo               (abs)        000000
___inthi_sp              stack        000000
___intlo_sp              stack        000000
___lwdiv                 text4        00FAFA
___lwdiv@counter         cstackCOMRAM 000032
___lwdiv@dividend        cstackCOMRAM 00002C
___lwdiv@divisor         cstackCOMRAM 00002E
___lwdiv@quotient        cstackCOMRAM 000030
___param_bank            (abs)        000000
___rparam_used           (abs)        000001
___sp                    stack        000000
__accesstop              (abs)        000080
__activetblptr           (abs)        000002
__end_of___awmod         text14       00FDD4
__end_of___lwdiv         text4        00FB6E
__end_of__initialization cinit        00F942
__end_of_adc             text3        00FC7C
__end_of_countdown       text11       010000
__end_of_delay           text10       00F9CE
__end_of_editTime        text13       00FD24
__end_of_lcd_cmd         text8        00F8E8
__end_of_lcd_dat         text6        00F8FA
__end_of_lcd_init        text7        00FA2A
__end_of_lcd_str         text5        00F986
__end_of_lcd_wr          text9        00F8D6
__end_of_main            text0        00FEE6
__end_of_potencjometr    text2        00FA90
__end_of_reset           text1        00FAFA
__end_of_timeout         text12       00FBEC
__initialization         cinit        00F91E
__mediumconst            mediumconst  000000
__pbssCOMRAM             bssCOMRAM    00003B
__pcinit                 cinit        00F91E
__pcstackCOMRAM          cstackCOMRAM 000025
__pdataCOMRAM            dataCOMRAM   000001
__pidataCOMRAM           idataCOMRAM  00F8FA
__ptext0                 text0        00FDD4
__ptext1                 text1        00FA90
__ptext10                text10       00F986
__ptext11                text11       00FEE6
__ptext12                text12       00FB6E
__ptext13                text13       00FC7C
__ptext14                text14       00FD24
__ptext2                 text2        00FA2A
__ptext3                 text3        00FBEC
__ptext4                 text4        00FAFA
__ptext5                 text5        00F94C
__ptext6                 text6        00F8E8
__ptext7                 text7        00F9CE
__ptext8                 text8        00F8D6
__ptext9                 text9        00F8CE
__ramtop                 ramtop       001000
__smallconst             smallconst   000000
_adc                     text3        00FBEC
_countdown               text11       00FEE6
_delay                   text10       00F986
_editTime                text13       00FC7C
_lcd_cmd                 text8        00F8D6
_lcd_dat                 text6        00F8E8
_lcd_init                text7        00F9CE
_lcd_str                 text5        00F94C
_lcd_wr                  text9        00F8CE
_main                    text0        00FDD4
_player1                 dataCOMRAM   000014
_player2                 dataCOMRAM   000003
_potencjometr            text2        00FA2A
_przelacznik             dataCOMRAM   000001
_reset                   text1        00FA90
_timeout                 text12       00FB6E
_tmp                     bssCOMRAM    00003B
adc@kanal                cstackCOMRAM 00002B
countdown@player         cstackCOMRAM 000038
delay@i                  cstackCOMRAM 000027
delay@j                  cstackCOMRAM 000029
delay@ms                 cstackCOMRAM 000025
editTime@c               cstackCOMRAM 000034
editTime@i               cstackCOMRAM 00002D
editTime@mod             cstackCOMRAM 00002F
editTime@operacja        cstackCOMRAM 000031
editTime@player          cstackCOMRAM 00002B
editTime@value           cstackCOMRAM 000036
end_of_initialization    cinit        00F942
intlevel0                text         000000
intlevel1                text         000000
intlevel2                text         000000
intlevel3                text         000000
isa$std                  (abs)        000001
isa$xinst                (abs)        000000
lcd_cmd@val              cstackCOMRAM 000026
lcd_dat@val              cstackCOMRAM 000026
lcd_str@i                cstackCOMRAM 000029
lcd_str@str              cstackCOMRAM 000027
lcd_wr@val               cstackCOMRAM 000025
stackhi                  (abs)        000000
stacklo                  (abs)        000000
start                    init         000000
start_initialization     cinit        00F91E
timeout@player           cstackCOMRAM 000025


MODULE INFORMATION

Module		Function		Class		Link	Load	Size
C:\Program Files\Microchip\xc8\v2.36\pic\sources\c99\common\awmod.c
		___awmod       		CODE           	FD24	0000	176

C:\Program Files\Microchip\xc8\v2.36\pic\sources\c99\common\awmod.c estimated size: 176

newmain.c
		_reset         		CODE           	FA90	0000	106
		_timeout       		CODE           	FB6E	0000	126
		_delay         		CODE           	F986	0000	72
		_lcd_cmd       		CODE           	F8D6	0000	18
		_lcd_dat       		CODE           	F8E8	0000	18
		_main          		CODE           	FDD4	0000	274
		_potencjometr  		CODE           	FA2A	0000	102
		_editTime      		CODE           	FC7C	0000	168
		_lcd_wr        		CODE           	F8CE	0000	8
		_adc           		CODE           	FBEC	0000	144
		_countdown     		CODE           	FEE6	0000	282
		_lcd_str       		CODE           	F94C	0000	58
		_lcd_init      		CODE           	F9CE	0000	92

newmain.c estimated size: 1468

C:\Program Files\Microchip\xc8\v2.36\pic\sources\c99\common\lwdiv.c
		___lwdiv       		CODE           	FAFA	0000	116

C:\Program Files\Microchip\xc8\v2.36\pic\sources\c99\common\lwdiv.c estimated size: 116

shared
		__initialization		CODE           	F91E	0000	36

shared estimated size: 36

