:0400000041EF7DF05F
:10FA1A00236E23C083FF1200246E848224500DECCF
:10FA2A007DF08494849284821200246E848224500D
:10FA3A000DEC7DF08484849284821200320E1E6E54
:10FA4A00300E1F6E300E0C6E300E0D6E300E0F6EB5
:10FA5A00300E106E1200435A41533A2020202020C3
:10FA6A002030303A3030004D4F433A2020202020B9
:10FA7A002020203230305700600EF66EFA0EF76EF4
:10FA8A00000EF86E00EE01F010EE22F00900F5CF3C
:10FA9A00EEFFE550E150FAE1376A366A356A346AB0
:10FAAA00000EF86E000120EF7FF0000E276E68EF5F
:10FABA007DF027502524D96E000E2620DA6EDF50FD
:10FACA001AEC7DF0272A27502524D96E000E26200D
:10FADA00DA6EDF50D8A474EF7DF076EF7DF05EEF3A
:10FAEA007DF01200000E266E000E256E8FEF7DF05F
:10FAFA00000E276E00F000F000F000F000F0272A58
:10FB0A00C70E27648BEF7DF08DEF7DF07FEF7DF0E0
:10FB1A00254A262A2350255C24502658D8A098EF37
:10FB2A007DF09AEF7DF07DEF7DF01200849284944F
:10FB3A00000E246E140E236E77EC7DF08482380E4C
:10FB4A0011EC7DF0000E246E050E236E77EC7DF02D
:10FB5A00380E11EC7DF0000E246E010E236E77EC48
:10FB6A007DF0380E11EC7DF0080E11EC7DF00F0ED1
:10FB7A0011EC7DF0010E11EC7DF0380E11EC7DF0E8
:10FB8A00800E11EC7DF01200010E3624236E000E59
:10FB9A003720246E030E2314366E376A300E1F6E1A
:10FBAA00E9EF7DF0320E1E6E07EF7EF0330E1E6E09
:10FBBA00350E1F6E07EF7EF0360E1E6E07EF7EF0D3
:10FBCA00380E1E6E07EF7EF036C023F037C024F0E1
:10FBDA002450000AD8B4F4EF7DF007EF7EF02350EA
:10FBEA00000AD8B4D7EF7DF0010AD8B4DBEF7DF074
:10FBFA00030AD8B4E1EF7DF0010AD8B4E5EF7DF04D
:10FC0A0007EF7EF01200000E336E010E326E010E07
:10FC1A002924D96E000E2A20DA6EDF502F6ED00EFC
:10FC2A002F24306E316AFF0E31222D502E10D8B497
:10FC3A0021EF7EF023EF7EF035EF7EF03250302454
:10FC4A00236E33503120246E2BC025F02CC026F0B1
:10FC5A005CEC7EF023C032F024C033F052EF7EF029
:10FC6A0030503110D8A43CEF7EF03EEF7EF042EFE8
:10FC7A007EF02BC030F02CC031F03250305C236E55
:10FC8A0033503158246E2BC025F02CC026F05CEC82
:10FC9A007EF023C032F024C033F0010E2924D96E3D
:10FCAA00000E2A20DA6E3250300FDF6E1200000E7C
:10FCBA00286E24BE65EF7EF063EF7EF06BEF7EF078
:10FCCA00236C241ED8B0242A010E286E26BE72EF99
:10FCDA007EF070EF7EF076EF7EF0256C261ED8B0AF
:10FCEA00262A25502610D8B47DEF7EF07FEF7EF0CD
:10FCFA00A3EF7EF0010E276E87EF7EF0D8902536AF
:10FD0A002636272A26AE8CEF7EF08EEF7EF083EF22
:10FD1A007EF02550235C26502458D8A097EF7EF019
:10FD2A0099EF7EF09DEF7EF02550235E2650245AEF
:10FD3A00D89026322532272E8EEF7EF02850D8B45E
:10FD4A00A9EF7EF0ABEF7EF0AFEF7EF0236C241EBE
:10FD5A00D8B0242A23C023F024C024F01200300E85
:10FD6A001018D8A4BBEF7EF0BDEF7EF011EF7FF044
:10FD7A00300E0F18D8A4C4EF7EF0C6EF7EF003EF62
:10FD8A007FF0300E0D18D8A4CDEF7EF0CFEF7EF0C5
:10FD9A00F5EF7EF0300E0C18D8A4D6EF7EF0D8EF2F
:10FDAA007EF0E7EF7EF034503510D8B4DFEF7EF006
:10FDBA00E2EF7EF0010EE3EF7EF0000E346E356A5C
:10FDCA001FEF7FF0000E2A6E0B0E296E000E2C6EAE
:10FDDA00060E2B6E000E2E6E000E2D6E08EC7EF0B7
:10FDEA00000E2A6E0C0E296E000E2C6E0A0E2B6E59
:10FDFA00000E2E6E000E2D6E08EC7EF0000E2A6E9E
:10FE0A000E0E296E000E2C6E060E2B6E000E2E6E36
:10FE1A00000E2D6E08EC7EF0000E2A6E0F0E296E73
:10FE2A00000E2C6E0A0E2B6E000E2E6E000E2D6E1C
:10FE3A0008EC7EF01200010EC26E0B0EC16E010EAE
:10FE4A00C06EC30E926E3F0E936E010E946E000E3C
:10FE5A00956E000E966E9BEC7DF0010E11EC7DF016
:10FE6A00030E246EE80E236E77EC7DF0010E11EC82
:10FE7A007DF0800E11EC7DF0120E256E000E266EBE
:10FE8A005AEC7DF0C00E11EC7DF0010E256E000ECD
:10FE9A00266E5AEC7DF081B455EF7FF057EF7FF074
:10FEAA0066EF7FF034503510D8B45EEF7FF061EF23
:10FEBA007FF0010E62EF7FF0000E346E356A35EF87
:10FECA007FF034503510D8B46DEF7FF06FEF7FF0CC
:10FEDA0073EF7FF0B4EC7EF035EF7FF081BA78EF04
:10FEEA007FF07AEF7FF07EEF7FF0C9EC7DF035EF9F
:10FEFA007FF081B883EF7FF085EF7FF0ACEF7FF082
:10FF0A00390E0D18D8A48CEF7FF08EEF7FF09CEF9E
:10FF1A007FF0000E2A6E0B0E296E000E2C6E060E56
:10FF2A002B6E000E2E6E010E2D6E08EC7EF0000E6A
:10FF3A002A6E0C0E296E000E2C6E0A0E2B6E000E07
:10FF4A002E6E010E2D6E08EC7EF035EF7FF081B635
:10FF5A00B1EF7FF0B3EF7FF0F1EF7FF0350E0F18BE
:10FF6A00D8A4BAEF7FF0BCEF7FF0E1EF7FF0390E53
:10FF7A000D18D8A4C3EF7FF0C5EF7FF0D3EF7FF061
:10FF8A00000E2A6E0B0E296E000E2C6E060E2B6EBC
:10FF9A00000E2E6E010E2D6E08EC7EF0000E2A6EFB
:10FFAA000C0E296E000E2C6E0A0E2B6E000E2E6E93
:10FFBA00010E2D6E08EC7EF0000E2A6E0E0E296ED2
:10FFCA00000E2C6E060E2B6E000E2E6E010E2D6E7E
:10FFDA0008EC7EF035EF7FF081B2F6EF7FF0F8EFB4
:10FFEA007FF0FCEF7FF023EC7DF035EF7FF035EF0B
:06FFFA007FF000EF00F0B3
:020000040020DA
:08000000FFFFFFFFFFFFFFFF00
:020000040030CA
:0E000000FF06181EFF8180FF0FC00FE00F40AB
:00000001FF
